{
  "contractName": "Wikipedia",
  "abi": [
    {
      "inputs": [],
      "payable": false,
      "stateMutability": "nonpayable",
      "type": "constructor"
    },
    {
      "anonymous": false,
      "inputs": [
        {
          "indexed": false,
          "internalType": "uint256",
          "name": "id",
          "type": "uint256"
        },
        {
          "indexed": false,
          "internalType": "string",
          "name": "heading",
          "type": "string"
        },
        {
          "indexed": false,
          "internalType": "string",
          "name": "content",
          "type": "string"
        },
        {
          "indexed": false,
          "internalType": "string",
          "name": "images",
          "type": "string"
        }
      ],
      "name": "wikiCreated",
      "type": "event"
    },
    {
      "constant": true,
      "inputs": [],
      "name": "wikiCount",
      "outputs": [
        {
          "internalType": "uint256",
          "name": "",
          "type": "uint256"
        }
      ],
      "payable": false,
      "stateMutability": "view",
      "type": "function"
    },
    {
      "constant": true,
      "inputs": [
        {
          "internalType": "uint256",
          "name": "",
          "type": "uint256"
        }
      ],
      "name": "wikiMap",
      "outputs": [
        {
          "internalType": "uint256",
          "name": "id",
          "type": "uint256"
        },
        {
          "internalType": "string",
          "name": "heading",
          "type": "string"
        },
        {
          "internalType": "string",
          "name": "content",
          "type": "string"
        },
        {
          "internalType": "string",
          "name": "images",
          "type": "string"
        }
      ],
      "payable": false,
      "stateMutability": "view",
      "type": "function"
    },
    {
      "constant": false,
      "inputs": [
        {
          "internalType": "string",
          "name": "_header",
          "type": "string"
        },
        {
          "internalType": "string",
          "name": "_content",
          "type": "string"
        },
        {
          "internalType": "string",
          "name": "_images",
          "type": "string"
        }
      ],
      "name": "createWiki",
      "outputs": [],
      "payable": false,
      "stateMutability": "nonpayable",
      "type": "function"
    }
  ],
  "bytecode": "0x6080604052600080553480156200001557600080fd5b5062000082604051806040016040528060098152602001684d696c6b792057617960b81b8152506040518061052001604052806104f48152602001620009ec6104f49139604051806080016040528060438152602001620009a9604391396001600160e01b036200008816565b620002fe565b600080546001908101808355604080516080810182528281526020808201898152828401899052606083018890529386528481529190942084518155915180519293620000de9390850192919091019062000164565b5060408201518051620000fc91600284019160209091019062000164565b50606082015180516200011a91600384019160209091019062000164565b509050507f30cb0e8cb076b725d56bc448c80136c801e50de7d0df7b67e636a6145428f8246000548484846040516200015794939291906200025a565b60405180910390a1505050565b828054600181600116156101000203166002900490600052602060002090601f016020900481019282601f10620001a757805160ff1916838001178555620001d7565b82800160010185558215620001d7579182015b82811115620001d7578251825591602001919060010190620001ba565b50620001e5929150620001e9565b5090565b6200020691905b80821115620001e55760008155600101620001f0565b90565b60006200021682620002b4565b620002228185620002b8565b935062000234818560208601620002c1565b6200023f81620002f4565b9093019392505050565b620002548162000206565b82525050565b608081016200026a828762000249565b81810360208301526200027e818662000209565b9050818103604083015262000294818562000209565b90508181036060830152620002aa818462000209565b9695505050505050565b5190565b90815260200190565b60005b83811015620002de578181015183820152602001620002c4565b83811115620002ee576000848401525b50505050565b601f01601f191690565b61069b806200030e6000396000f3fe608060405234801561001057600080fd5b50600436106100415760003560e01c8063094f9af8146100465780632ccbc78314610064578063cf74861b14610079575b600080fd5b61004e61009c565b60405161005b919061053f565b60405180910390f35b61007761007236600461043e565b6100a2565b005b61008c6100873660046104d2565b610176565b60405161005b949392919061054d565b60005481565b6000805460019081018083556040805160808101825282815260208082018981528284018990526060830188905293865284815291909420845181559151805192936100f69390850192919091019061033e565b506040820151805161011291600284019160209091019061033e565b506060820151805161012e91600384019160209091019061033e565b509050507f30cb0e8cb076b725d56bc448c80136c801e50de7d0df7b67e636a6145428f824600054848484604051610169949392919061054d565b60405180910390a1505050565b600160208181526000928352604092839020805481840180548651600296821615610100026000190190911695909504601f810185900485028601850190965285855290949193929091908301828280156102125780601f106101e757610100808354040283529160200191610212565b820191906000526020600020905b8154815290600101906020018083116101f557829003601f168201915b50505060028085018054604080516020601f60001961010060018716150201909416959095049283018590048502810185019091528181529596959450909250908301828280156102a45780601f10610279576101008083540402835291602001916102a4565b820191906000526020600020905b81548152906001019060200180831161028757829003601f168201915b5050505060038301805460408051602060026001851615610100026000190190941693909304601f81018490048402820184019092528181529495949350908301828280156103345780601f1061030957610100808354040283529160200191610334565b820191906000526020600020905b81548152906001019060200180831161031757829003601f168201915b5050505050905084565b828054600181600116156101000203166002900490600052602060002090601f016020900481019282601f1061037f57805160ff19168380011785556103ac565b828001600101855582156103ac579182015b828111156103ac578251825591602001919060010190610391565b506103b89291506103bc565b5090565b6103d691905b808211156103b857600081556001016103c2565b90565b600082601f8301126103ea57600080fd5b81356103fd6103f8826105c6565b61059f565b9150808252602083016020830185838301111561041957600080fd5b6104248382846105fb565b50505092915050565b803561043881610641565b92915050565b60008060006060848603121561045357600080fd5b833567ffffffffffffffff81111561046a57600080fd5b610476868287016103d9565b935050602084013567ffffffffffffffff81111561049357600080fd5b61049f868287016103d9565b925050604084013567ffffffffffffffff8111156104bc57600080fd5b6104c8868287016103d9565b9150509250925092565b6000602082840312156104e457600080fd5b60006104f0848461042d565b949350505050565b6000610503826105ee565b61050d81856105f2565b935061051d818560208601610607565b61052681610637565b9093019392505050565b610539816103d6565b82525050565b602081016104388284610530565b6080810161055b8287610530565b818103602083015261056d81866104f8565b9050818103604083015261058181856104f8565b9050818103606083015261059581846104f8565b9695505050505050565b60405181810167ffffffffffffffff811182821017156105be57600080fd5b604052919050565b600067ffffffffffffffff8211156105dd57600080fd5b506020601f91909101601f19160190565b5190565b90815260200190565b82818337506000910152565b60005b8381101561062257818101518382015260200161060a565b83811115610631576000848401525b50505050565b601f01601f191690565b61064a816103d6565b811461065557600080fd5b5056fea365627a7a72315820bda55db1af07f98f519f0f68c77554afbf4f6e6f4c01059250c8afa0b4af90616c6578706572696d656e74616cf564736f6c6343000510004068747470733a2f2f63646e2e706978616261792e636f6d2f70686f746f2f323031352f30342f32332f32322f30302f747265652d3733363838355f5f3438302e6a7067497420697320657374696d6174656420746f20636f6e7461696e20313030e280933430302062696c6c696f6e20737461727320616e64206174206c656173742074686174206e756d626572206f6620706c616e6574732e54686520536f6c61722053797374656d206973206c6f6361746564206174206120726164697573206f662061626f75742032372c303030206c696768742d79656172732066726f6d207468652047616c61637469632043656e7465722c206f6e2074686520696e6e65722065646765206f6620746865204f72696f6e2041726d2c206f6e65206f66207468652073706972616c2d73686170656420636f6e63656e74726174696f6e73206f662067617320616e6420647573742e2054686520737461727320696e2074686520696e6e65726d6f73742031302c303030206c696768742d796561727320666f726d20612062756c676520616e64206f6e65206f72206d6f72652062617273207468617420726164696174652066726f6d207468652062756c67652e205468652067616c61637469632063656e74657220697320616e20696e74656e736520726164696f20736f75726365206b6e6f776e20617320536167697474617269757320412a2c206173757065726d61737369766520626c61636b20686f6c65206f6620342e3130302028c2b120302e30333429206d696c6c696f6e20736f6c6172206d61737365732e20537461727320616e64206761736573206174206120776964652072616e6765206f662064697374616e6365732066726f6d207468652047616c61637469632043656e746572206f7262697420617420617070726f78696d6174656c7920323230206b696c6f6d657465727320706572207365636f6e642e2054686520636f6e7374616e7420726f746174696f6e20737065656420636f6e747261646963747320746865206c617773206f66204b65706c657269616e2064796e616d69637320616e642073756767657374732074686174206d756368202861626f75742039302529206f6620746865206d617373206f6620746865204d696c6b792057617920697320696e76697369626c6520746f2074656c6573636f7065732c206e65697468657220656d697474696e67206e6f72206162736f7262696e6720656c656374726f6d61676e6574696320726164696174696f6e2e205468697320636f6e6a6563747572616c206d61737320686173206265656e207465726d6564206461726b206d61747465722e2054686520726f746174696f6e616c20706572696f642069732061626f757420323430206d696c6c696f6e2079656172732061742074686520726164697573206f66207468652053756e2e20546865204d696c6b792057617920617320612077686f6c65206973206d6f76696e6720617420612076656c6f63697479206f6620617070726f78696d6174656c7920363030206b6d20706572207365636f6e642077697468207265737065637420746f20657874726167616c6163746963206672616d6573206f66207265666572656e63652e20546865206f6c6465737420737461727320696e20746865204d696c6b792057617920617265206e6561726c79206173206f6c642061732074686520556e69766572736520697473656c6620616e6420746875732070726f6261626c7920666f726d65642073686f72746c7920616674657220746865204461726b2041676573206f6620746865204269672042616e672e",
  "source": "pragma solidity ^0.5.0;\r\npragma experimental ABIEncoderV2;\r\n\r\ncontract Wikipedia {\r\n  uint public wikiCount = 0;\r\n\r\n  struct wiki {\r\n    uint id;\r\n    string heading;\r\n    string content;\r\n    string images;\r\n  }\r\n\r\n  mapping(uint => wiki) public wikiMap;\r\n\r\n  event wikiCreated(\r\n    uint id,\r\n    string heading,\r\n    string content,\r\n    string images\r\n  );\r\n\r\n  constructor() public {\r\n    createWiki(\"Milky Way\",\"It is estimated to contain 100–400 billion stars and at least that number of planets.The Solar System is located at a radius of about 27,000 light-years from the Galactic Center, on the inner edge of the Orion Arm, one of the spiral-shaped concentrations of gas and dust. The stars in the innermost 10,000 light-years form a bulge and one or more bars that radiate from the bulge. The galactic center is an intense radio source known as Sagittarius A*, asupermassive black hole of 4.100 (± 0.034) million solar masses. Stars and gases at a wide range of distances from the Galactic Center orbit at approximately 220 kilometers per second. The constant rotation speed contradicts the laws of Keplerian dynamics and suggests that much (about 90%) of the mass of the Milky Way is invisible to telescopes, neither emitting nor absorbing electromagnetic radiation. This conjectural mass has been termed dark matter. The rotational period is about 240 million years at the radius of the Sun. The Milky Way as a whole is moving at a velocity of approximately 600 km per second with respect to extragalactic frames of reference. The oldest stars in the Milky Way are nearly as old as the Universe itself and thus probably formed shortly after the Dark Ages of the Big Bang.\",\"https://cdn.pixabay.com/photo/2015/04/23/22/00/tree-736885__480.jpg\");\r\n  }\r\n\r\n  function createWiki(string memory _header, string memory _content, string memory _images) public {\r\n    wikiCount++;\r\n    wikiMap[wikiCount] = wiki(wikiCount, _header, _content, _images);\r\n    emit wikiCreated(wikiCount, _header, _content, _images);\r\n  }\r\n\r\n}\r\n",
  "sourcePath": "D:\\Decentralized Wikipedia\\contracts\\Wikipedia.sol",
  "compiler": {
    "name": "solc",
    "version": "0.5.16+commit.9c3226ce.Emscripten.clang"
  },
  "schemaVersion": "3.4.6",
  "updatedAt": "2022-04-03T02:55:41.428Z",
  "devdoc": {
    "methods": {}
  },
  "userdoc": {
    "methods": {}
  }
}